{
	"practice/web3/Development/QuilsChallenges/SimpleMessage.sol": {
		"SimpleMessage": {
			"abi": [
				{
					"anonymous": false,
					"inputs": [
						{
							"indexed": true,
							"internalType": "address",
							"name": "user",
							"type": "address"
						},
						{
							"indexed": false,
							"internalType": "string",
							"name": "message",
							"type": "string"
						}
					],
					"name": "MessgeStored",
					"type": "event"
				},
				{
					"inputs": [],
					"name": "getUserAddr",
					"outputs": [
						{
							"internalType": "address",
							"name": "",
							"type": "address"
						}
					],
					"stateMutability": "view",
					"type": "function"
				},
				{
					"inputs": [
						{
							"internalType": "string",
							"name": "message",
							"type": "string"
						}
					],
					"name": "storeMsg",
					"outputs": [],
					"stateMutability": "nonpayable",
					"type": "function"
				},
				{
					"inputs": [
						{
							"internalType": "string",
							"name": "message",
							"type": "string"
						}
					],
					"name": "updateMsg",
					"outputs": [],
					"stateMutability": "nonpayable",
					"type": "function"
				},
				{
					"inputs": [
						{
							"internalType": "address",
							"name": "msgOwner",
							"type": "address"
						}
					],
					"name": "viewMsg",
					"outputs": [
						{
							"internalType": "string",
							"name": "",
							"type": "string"
						}
					],
					"stateMutability": "view",
					"type": "function"
				}
			],
			"devdoc": {
				"kind": "dev",
				"methods": {},
				"version": 1
			},
			"evm": {
				"assembly": "    /* \"practice/web3/Development/QuilsChallenges/SimpleMessage.sol\":1576:2974  contract SimpleMessage {... */\n  mstore(0x40, 0x80)\n  callvalue\n  dup1\n  iszero\n  tag_1\n  jumpi\n  0x00\n  dup1\n  revert\ntag_1:\n  pop\n  dataSize(sub_0)\n  dup1\n  dataOffset(sub_0)\n  0x00\n  codecopy\n  0x00\n  return\nstop\n\nsub_0: assembly {\n        /* \"practice/web3/Development/QuilsChallenges/SimpleMessage.sol\":1576:2974  contract SimpleMessage {... */\n      mstore(0x40, 0x80)\n      callvalue\n      dup1\n      iszero\n      tag_1\n      jumpi\n      0x00\n      dup1\n      revert\n    tag_1:\n      pop\n      jumpi(tag_2, lt(calldatasize, 0x04))\n      shr(0xe0, calldataload(0x00))\n      dup1\n      0x82a7f39c\n      eq\n      tag_3\n      jumpi\n      dup1\n      0x8de8f286\n      eq\n      tag_4\n      jumpi\n      dup1\n      0xc665242b\n      eq\n      tag_5\n      jumpi\n      dup1\n      0xda8bfc56\n      eq\n      tag_6\n      jumpi\n    tag_2:\n      0x00\n      dup1\n      revert\n        /* \"practice/web3/Development/QuilsChallenges/SimpleMessage.sol\":2858:2970  function viewMsg(address msgOwner) public view returns(string memory) {... */\n    tag_3:\n      tag_7\n      0x04\n      dup1\n      calldatasize\n      sub\n      dup2\n      add\n      swap1\n      tag_8\n      swap2\n      swap1\n      tag_9\n      jump\t// in\n    tag_8:\n      tag_10\n      jump\t// in\n    tag_7:\n      mload(0x40)\n      tag_11\n      swap2\n      swap1\n      tag_12\n      jump\t// in\n    tag_11:\n      mload(0x40)\n      dup1\n      swap2\n      sub\n      swap1\n      return\n        /* \"practice/web3/Development/QuilsChallenges/SimpleMessage.sol\":2521:2678  function updateMsg(string calldata message) public checkOwner {... */\n    tag_4:\n      tag_13\n      0x04\n      dup1\n      calldatasize\n      sub\n      dup2\n      add\n      swap1\n      tag_14\n      swap2\n      swap1\n      tag_15\n      jump\t// in\n    tag_14:\n      tag_16\n      jump\t// in\n    tag_13:\n      stop\n        /* \"practice/web3/Development/QuilsChallenges/SimpleMessage.sol\":2370:2515  function storeMsg(string calldata message) public {... */\n    tag_5:\n      tag_17\n      0x04\n      dup1\n      calldatasize\n      sub\n      dup2\n      add\n      swap1\n      tag_18\n      swap2\n      swap1\n      tag_15\n      jump\t// in\n    tag_18:\n      tag_19\n      jump\t// in\n    tag_17:\n      stop\n        /* \"practice/web3/Development/QuilsChallenges/SimpleMessage.sol\":2073:2158  function getUserAddr() public view returns(address){... */\n    tag_6:\n      tag_20\n      tag_21\n      jump\t// in\n    tag_20:\n      mload(0x40)\n      tag_22\n      swap2\n      swap1\n      tag_23\n      jump\t// in\n    tag_22:\n      mload(0x40)\n      dup1\n      swap2\n      sub\n      swap1\n      return\n        /* \"practice/web3/Development/QuilsChallenges/SimpleMessage.sol\":2858:2970  function viewMsg(address msgOwner) public view returns(string memory) {... */\n    tag_10:\n        /* \"practice/web3/Development/QuilsChallenges/SimpleMessage.sol\":2913:2926  string memory */\n      0x60\n        /* \"practice/web3/Development/QuilsChallenges/SimpleMessage.sol\":2945:2953  messages */\n      0x00\n        /* \"practice/web3/Development/QuilsChallenges/SimpleMessage.sol\":2945:2963  messages[msgOwner] */\n      dup1\n        /* \"practice/web3/Development/QuilsChallenges/SimpleMessage.sol\":2954:2962  msgOwner */\n      dup4\n        /* \"practice/web3/Development/QuilsChallenges/SimpleMessage.sol\":2945:2963  messages[msgOwner] */\n      0xffffffffffffffffffffffffffffffffffffffff\n      and\n      0xffffffffffffffffffffffffffffffffffffffff\n      and\n      dup2\n      mstore\n      0x20\n      add\n      swap1\n      dup2\n      mstore\n      0x20\n      add\n      0x00\n      keccak256\n        /* \"practice/web3/Development/QuilsChallenges/SimpleMessage.sol\":2938:2963  return messages[msgOwner] */\n      dup1\n      sload\n      tag_25\n      swap1\n      tag_26\n      jump\t// in\n    tag_25:\n      dup1\n      0x1f\n      add\n      0x20\n      dup1\n      swap2\n      div\n      mul\n      0x20\n      add\n      mload(0x40)\n      swap1\n      dup2\n      add\n      0x40\n      mstore\n      dup1\n      swap3\n      swap2\n      swap1\n      dup2\n      dup2\n      mstore\n      0x20\n      add\n      dup3\n      dup1\n      sload\n      tag_27\n      swap1\n      tag_26\n      jump\t// in\n    tag_27:\n      dup1\n      iszero\n      tag_28\n      jumpi\n      dup1\n      0x1f\n      lt\n      tag_29\n      jumpi\n      0x0100\n      dup1\n      dup4\n      sload\n      div\n      mul\n      dup4\n      mstore\n      swap2\n      0x20\n      add\n      swap2\n      jump(tag_28)\n    tag_29:\n      dup3\n      add\n      swap2\n      swap1\n      0x00\n      mstore\n      keccak256(0x00, 0x20)\n      swap1\n    tag_30:\n      dup2\n      sload\n      dup2\n      mstore\n      swap1\n      0x01\n      add\n      swap1\n      0x20\n      add\n      dup1\n      dup4\n      gt\n      tag_30\n      jumpi\n      dup3\n      swap1\n      sub\n      0x1f\n      and\n      dup3\n      add\n      swap2\n    tag_28:\n      pop\n      pop\n      pop\n      pop\n      pop\n      swap1\n      pop\n        /* \"practice/web3/Development/QuilsChallenges/SimpleMessage.sol\":2858:2970  function viewMsg(address msgOwner) public view returns(string memory) {... */\n      swap2\n      swap1\n      pop\n      jump\t// out\n        /* \"practice/web3/Development/QuilsChallenges/SimpleMessage.sol\":2521:2678  function updateMsg(string calldata message) public checkOwner {... */\n    tag_16:\n        /* \"practice/web3/Development/QuilsChallenges/SimpleMessage.sol\":1714:1727  getUserAddr() */\n      tag_32\n        /* \"practice/web3/Development/QuilsChallenges/SimpleMessage.sol\":1714:1725  getUserAddr */\n      tag_21\n        /* \"practice/web3/Development/QuilsChallenges/SimpleMessage.sol\":1714:1727  getUserAddr() */\n      jump\t// in\n    tag_32:\n        /* \"practice/web3/Development/QuilsChallenges/SimpleMessage.sol\":1700:1727  msg.sender == getUserAddr() */\n      0xffffffffffffffffffffffffffffffffffffffff\n      and\n        /* \"practice/web3/Development/QuilsChallenges/SimpleMessage.sol\":1700:1710  msg.sender */\n      caller\n        /* \"practice/web3/Development/QuilsChallenges/SimpleMessage.sol\":1700:1727  msg.sender == getUserAddr() */\n      0xffffffffffffffffffffffffffffffffffffffff\n      and\n      eq\n        /* \"practice/web3/Development/QuilsChallenges/SimpleMessage.sol\":1692:1760  require(msg.sender == getUserAddr(), \"Opps stick to your own msg!!\") */\n      tag_33\n      jumpi\n      mload(0x40)\n      0x08c379a000000000000000000000000000000000000000000000000000000000\n      dup2\n      mstore\n      0x04\n      add\n      tag_34\n      swap1\n      tag_35\n      jump\t// in\n    tag_34:\n      mload(0x40)\n      dup1\n      swap2\n      sub\n      swap1\n      revert\n    tag_33:\n        /* \"practice/web3/Development/QuilsChallenges/SimpleMessage.sol\":2616:2623  message */\n      dup2\n      dup2\n        /* \"practice/web3/Development/QuilsChallenges/SimpleMessage.sol\":2593:2601  messages */\n      0x00\n        /* \"practice/web3/Development/QuilsChallenges/SimpleMessage.sol\":2593:2613  messages[msg.sender] */\n      dup1\n        /* \"practice/web3/Development/QuilsChallenges/SimpleMessage.sol\":2602:2612  msg.sender */\n      caller\n        /* \"practice/web3/Development/QuilsChallenges/SimpleMessage.sol\":2593:2613  messages[msg.sender] */\n      0xffffffffffffffffffffffffffffffffffffffff\n      and\n      0xffffffffffffffffffffffffffffffffffffffff\n      and\n      dup2\n      mstore\n      0x20\n      add\n      swap1\n      dup2\n      mstore\n      0x20\n      add\n      0x00\n      keccak256\n        /* \"practice/web3/Development/QuilsChallenges/SimpleMessage.sol\":2593:2623  messages[msg.sender] = message */\n      swap2\n      dup3\n      tag_37\n      swap3\n      swap2\n      swap1\n      tag_38\n      jump\t// in\n    tag_37:\n      pop\n        /* \"practice/web3/Development/QuilsChallenges/SimpleMessage.sol\":2651:2661  msg.sender */\n      caller\n        /* \"practice/web3/Development/QuilsChallenges/SimpleMessage.sol\":2638:2671  MessgeStored(msg.sender, message) */\n      0xffffffffffffffffffffffffffffffffffffffff\n      and\n      0xcb28b0286697a0e3bff698731b2be3d991248ff7194babd281e8dae1c4c884b6\n        /* \"practice/web3/Development/QuilsChallenges/SimpleMessage.sol\":2663:2670  message */\n      dup4\n      dup4\n        /* \"practice/web3/Development/QuilsChallenges/SimpleMessage.sol\":2638:2671  MessgeStored(msg.sender, message) */\n      mload(0x40)\n      tag_39\n      swap3\n      swap2\n      swap1\n      tag_40\n      jump\t// in\n    tag_39:\n      mload(0x40)\n      dup1\n      swap2\n      sub\n      swap1\n      log2\n        /* \"practice/web3/Development/QuilsChallenges/SimpleMessage.sol\":2521:2678  function updateMsg(string calldata message) public checkOwner {... */\n      pop\n      pop\n      jump\t// out\n        /* \"practice/web3/Development/QuilsChallenges/SimpleMessage.sol\":2370:2515  function storeMsg(string calldata message) public {... */\n    tag_19:\n        /* \"practice/web3/Development/QuilsChallenges/SimpleMessage.sol\":2453:2460  message */\n      dup2\n      dup2\n        /* \"practice/web3/Development/QuilsChallenges/SimpleMessage.sol\":2430:2438  messages */\n      0x00\n        /* \"practice/web3/Development/QuilsChallenges/SimpleMessage.sol\":2430:2450  messages[msg.sender] */\n      dup1\n        /* \"practice/web3/Development/QuilsChallenges/SimpleMessage.sol\":2439:2449  msg.sender */\n      caller\n        /* \"practice/web3/Development/QuilsChallenges/SimpleMessage.sol\":2430:2450  messages[msg.sender] */\n      0xffffffffffffffffffffffffffffffffffffffff\n      and\n      0xffffffffffffffffffffffffffffffffffffffff\n      and\n      dup2\n      mstore\n      0x20\n      add\n      swap1\n      dup2\n      mstore\n      0x20\n      add\n      0x00\n      keccak256\n        /* \"practice/web3/Development/QuilsChallenges/SimpleMessage.sol\":2430:2460  messages[msg.sender] = message */\n      swap2\n      dup3\n      tag_42\n      swap3\n      swap2\n      swap1\n      tag_38\n      jump\t// in\n    tag_42:\n      pop\n        /* \"practice/web3/Development/QuilsChallenges/SimpleMessage.sol\":2488:2498  msg.sender */\n      caller\n        /* \"practice/web3/Development/QuilsChallenges/SimpleMessage.sol\":2475:2508  MessgeStored(msg.sender, message) */\n      0xffffffffffffffffffffffffffffffffffffffff\n      and\n      0xcb28b0286697a0e3bff698731b2be3d991248ff7194babd281e8dae1c4c884b6\n        /* \"practice/web3/Development/QuilsChallenges/SimpleMessage.sol\":2500:2507  message */\n      dup4\n      dup4\n        /* \"practice/web3/Development/QuilsChallenges/SimpleMessage.sol\":2475:2508  MessgeStored(msg.sender, message) */\n      mload(0x40)\n      tag_43\n      swap3\n      swap2\n      swap1\n      tag_40\n      jump\t// in\n    tag_43:\n      mload(0x40)\n      dup1\n      swap2\n      sub\n      swap1\n      log2\n        /* \"practice/web3/Development/QuilsChallenges/SimpleMessage.sol\":2370:2515  function storeMsg(string calldata message) public {... */\n      pop\n      pop\n      jump\t// out\n        /* \"practice/web3/Development/QuilsChallenges/SimpleMessage.sol\":2073:2158  function getUserAddr() public view returns(address){... */\n    tag_21:\n        /* \"practice/web3/Development/QuilsChallenges/SimpleMessage.sol\":2116:2123  address */\n      0x00\n        /* \"practice/web3/Development/QuilsChallenges/SimpleMessage.sol\":2141:2151  msg.sender */\n      caller\n        /* \"practice/web3/Development/QuilsChallenges/SimpleMessage.sol\":2134:2151  return msg.sender */\n      swap1\n      pop\n        /* \"practice/web3/Development/QuilsChallenges/SimpleMessage.sol\":2073:2158  function getUserAddr() public view returns(address){... */\n      swap1\n      jump\t// out\n        /* \"#utility.yul\":88:205   */\n    tag_46:\n        /* \"#utility.yul\":197:198   */\n      0x00\n        /* \"#utility.yul\":194:195   */\n      dup1\n        /* \"#utility.yul\":187:199   */\n      revert\n        /* \"#utility.yul\":211:328   */\n    tag_47:\n        /* \"#utility.yul\":320:321   */\n      0x00\n        /* \"#utility.yul\":317:318   */\n      dup1\n        /* \"#utility.yul\":310:322   */\n      revert\n        /* \"#utility.yul\":334:460   */\n    tag_48:\n        /* \"#utility.yul\":371:378   */\n      0x00\n        /* \"#utility.yul\":411:453   */\n      0xffffffffffffffffffffffffffffffffffffffff\n        /* \"#utility.yul\":404:409   */\n      dup3\n        /* \"#utility.yul\":400:454   */\n      and\n        /* \"#utility.yul\":389:454   */\n      swap1\n      pop\n        /* \"#utility.yul\":334:460   */\n      swap2\n      swap1\n      pop\n      jump\t// out\n        /* \"#utility.yul\":466:562   */\n    tag_49:\n        /* \"#utility.yul\":503:510   */\n      0x00\n        /* \"#utility.yul\":532:556   */\n      tag_91\n        /* \"#utility.yul\":550:555   */\n      dup3\n        /* \"#utility.yul\":532:556   */\n      tag_48\n      jump\t// in\n    tag_91:\n        /* \"#utility.yul\":521:556   */\n      swap1\n      pop\n        /* \"#utility.yul\":466:562   */\n      swap2\n      swap1\n      pop\n      jump\t// out\n        /* \"#utility.yul\":568:690   */\n    tag_50:\n        /* \"#utility.yul\":641:665   */\n      tag_93\n        /* \"#utility.yul\":659:664   */\n      dup2\n        /* \"#utility.yul\":641:665   */\n      tag_49\n      jump\t// in\n    tag_93:\n        /* \"#utility.yul\":634:639   */\n      dup2\n        /* \"#utility.yul\":631:666   */\n      eq\n        /* \"#utility.yul\":621:684   */\n      tag_94\n      jumpi\n        /* \"#utility.yul\":680:681   */\n      0x00\n        /* \"#utility.yul\":677:678   */\n      dup1\n        /* \"#utility.yul\":670:682   */\n      revert\n        /* \"#utility.yul\":621:684   */\n    tag_94:\n        /* \"#utility.yul\":568:690   */\n      pop\n      jump\t// out\n        /* \"#utility.yul\":696:835   */\n    tag_51:\n        /* \"#utility.yul\":742:747   */\n      0x00\n        /* \"#utility.yul\":780:786   */\n      dup2\n        /* \"#utility.yul\":767:787   */\n      calldataload\n        /* \"#utility.yul\":758:787   */\n      swap1\n      pop\n        /* \"#utility.yul\":796:829   */\n      tag_96\n        /* \"#utility.yul\":823:828   */\n      dup2\n        /* \"#utility.yul\":796:829   */\n      tag_50\n      jump\t// in\n    tag_96:\n        /* \"#utility.yul\":696:835   */\n      swap3\n      swap2\n      pop\n      pop\n      jump\t// out\n        /* \"#utility.yul\":841:1170   */\n    tag_9:\n        /* \"#utility.yul\":900:906   */\n      0x00\n        /* \"#utility.yul\":949:951   */\n      0x20\n        /* \"#utility.yul\":937:946   */\n      dup3\n        /* \"#utility.yul\":928:935   */\n      dup5\n        /* \"#utility.yul\":924:947   */\n      sub\n        /* \"#utility.yul\":920:952   */\n      slt\n        /* \"#utility.yul\":917:1036   */\n      iszero\n      tag_98\n      jumpi\n        /* \"#utility.yul\":955:1034   */\n      tag_99\n      tag_46\n      jump\t// in\n    tag_99:\n        /* \"#utility.yul\":917:1036   */\n    tag_98:\n        /* \"#utility.yul\":1075:1076   */\n      0x00\n        /* \"#utility.yul\":1100:1153   */\n      tag_100\n        /* \"#utility.yul\":1145:1152   */\n      dup5\n        /* \"#utility.yul\":1136:1142   */\n      dup3\n        /* \"#utility.yul\":1125:1134   */\n      dup6\n        /* \"#utility.yul\":1121:1143   */\n      add\n        /* \"#utility.yul\":1100:1153   */\n      tag_51\n      jump\t// in\n    tag_100:\n        /* \"#utility.yul\":1090:1153   */\n      swap2\n      pop\n        /* \"#utility.yul\":1046:1163   */\n      pop\n        /* \"#utility.yul\":841:1170   */\n      swap3\n      swap2\n      pop\n      pop\n      jump\t// out\n        /* \"#utility.yul\":1176:1275   */\n    tag_52:\n        /* \"#utility.yul\":1228:1234   */\n      0x00\n        /* \"#utility.yul\":1262:1267   */\n      dup2\n        /* \"#utility.yul\":1256:1268   */\n      mload\n        /* \"#utility.yul\":1246:1268   */\n      swap1\n      pop\n        /* \"#utility.yul\":1176:1275   */\n      swap2\n      swap1\n      pop\n      jump\t// out\n        /* \"#utility.yul\":1281:1450   */\n    tag_53:\n        /* \"#utility.yul\":1365:1376   */\n      0x00\n        /* \"#utility.yul\":1399:1405   */\n      dup3\n        /* \"#utility.yul\":1394:1397   */\n      dup3\n        /* \"#utility.yul\":1387:1406   */\n      mstore\n        /* \"#utility.yul\":1439:1443   */\n      0x20\n        /* \"#utility.yul\":1434:1437   */\n      dup3\n        /* \"#utility.yul\":1430:1444   */\n      add\n        /* \"#utility.yul\":1415:1444   */\n      swap1\n      pop\n        /* \"#utility.yul\":1281:1450   */\n      swap3\n      swap2\n      pop\n      pop\n      jump\t// out\n        /* \"#utility.yul\":1456:1702   */\n    tag_54:\n        /* \"#utility.yul\":1537:1538   */\n      0x00\n        /* \"#utility.yul\":1547:1660   */\n    tag_104:\n        /* \"#utility.yul\":1561:1567   */\n      dup4\n        /* \"#utility.yul\":1558:1559   */\n      dup2\n        /* \"#utility.yul\":1555:1568   */\n      lt\n        /* \"#utility.yul\":1547:1660   */\n      iszero\n      tag_106\n      jumpi\n        /* \"#utility.yul\":1646:1647   */\n      dup1\n        /* \"#utility.yul\":1641:1644   */\n      dup3\n        /* \"#utility.yul\":1637:1648   */\n      add\n        /* \"#utility.yul\":1631:1649   */\n      mload\n        /* \"#utility.yul\":1627:1628   */\n      dup2\n        /* \"#utility.yul\":1622:1625   */\n      dup5\n        /* \"#utility.yul\":1618:1629   */\n      add\n        /* \"#utility.yul\":1611:1650   */\n      mstore\n        /* \"#utility.yul\":1583:1585   */\n      0x20\n        /* \"#utility.yul\":1580:1581   */\n      dup2\n        /* \"#utility.yul\":1576:1586   */\n      add\n        /* \"#utility.yul\":1571:1586   */\n      swap1\n      pop\n        /* \"#utility.yul\":1547:1660   */\n      jump(tag_104)\n    tag_106:\n        /* \"#utility.yul\":1694:1695   */\n      0x00\n        /* \"#utility.yul\":1685:1691   */\n      dup5\n        /* \"#utility.yul\":1680:1683   */\n      dup5\n        /* \"#utility.yul\":1676:1692   */\n      add\n        /* \"#utility.yul\":1669:1696   */\n      mstore\n        /* \"#utility.yul\":1518:1702   */\n      pop\n        /* \"#utility.yul\":1456:1702   */\n      pop\n      pop\n      pop\n      jump\t// out\n        /* \"#utility.yul\":1708:1810   */\n    tag_55:\n        /* \"#utility.yul\":1749:1755   */\n      0x00\n        /* \"#utility.yul\":1800:1802   */\n      0x1f\n        /* \"#utility.yul\":1796:1803   */\n      not\n        /* \"#utility.yul\":1791:1793   */\n      0x1f\n        /* \"#utility.yul\":1784:1789   */\n      dup4\n        /* \"#utility.yul\":1780:1794   */\n      add\n        /* \"#utility.yul\":1776:1804   */\n      and\n        /* \"#utility.yul\":1766:1804   */\n      swap1\n      pop\n        /* \"#utility.yul\":1708:1810   */\n      swap2\n      swap1\n      pop\n      jump\t// out\n        /* \"#utility.yul\":1816:2193   */\n    tag_56:\n        /* \"#utility.yul\":1904:1907   */\n      0x00\n        /* \"#utility.yul\":1932:1971   */\n      tag_109\n        /* \"#utility.yul\":1965:1970   */\n      dup3\n        /* \"#utility.yul\":1932:1971   */\n      tag_52\n      jump\t// in\n    tag_109:\n        /* \"#utility.yul\":1987:2058   */\n      tag_110\n        /* \"#utility.yul\":2051:2057   */\n      dup2\n        /* \"#utility.yul\":2046:2049   */\n      dup6\n        /* \"#utility.yul\":1987:2058   */\n      tag_53\n      jump\t// in\n    tag_110:\n        /* \"#utility.yul\":1980:2058   */\n      swap4\n      pop\n        /* \"#utility.yul\":2067:2132   */\n      tag_111\n        /* \"#utility.yul\":2125:2131   */\n      dup2\n        /* \"#utility.yul\":2120:2123   */\n      dup6\n        /* \"#utility.yul\":2113:2117   */\n      0x20\n        /* \"#utility.yul\":2106:2111   */\n      dup7\n        /* \"#utility.yul\":2102:2118   */\n      add\n        /* \"#utility.yul\":2067:2132   */\n      tag_54\n      jump\t// in\n    tag_111:\n        /* \"#utility.yul\":2157:2186   */\n      tag_112\n        /* \"#utility.yul\":2179:2185   */\n      dup2\n        /* \"#utility.yul\":2157:2186   */\n      tag_55\n      jump\t// in\n    tag_112:\n        /* \"#utility.yul\":2152:2155   */\n      dup5\n        /* \"#utility.yul\":2148:2187   */\n      add\n        /* \"#utility.yul\":2141:2187   */\n      swap2\n      pop\n        /* \"#utility.yul\":1908:2193   */\n      pop\n        /* \"#utility.yul\":1816:2193   */\n      swap3\n      swap2\n      pop\n      pop\n      jump\t// out\n        /* \"#utility.yul\":2199:2512   */\n    tag_12:\n        /* \"#utility.yul\":2312:2316   */\n      0x00\n        /* \"#utility.yul\":2350:2352   */\n      0x20\n        /* \"#utility.yul\":2339:2348   */\n      dup3\n        /* \"#utility.yul\":2335:2353   */\n      add\n        /* \"#utility.yul\":2327:2353   */\n      swap1\n      pop\n        /* \"#utility.yul\":2399:2408   */\n      dup2\n        /* \"#utility.yul\":2393:2397   */\n      dup2\n        /* \"#utility.yul\":2389:2409   */\n      sub\n        /* \"#utility.yul\":2385:2386   */\n      0x00\n        /* \"#utility.yul\":2374:2383   */\n      dup4\n        /* \"#utility.yul\":2370:2387   */\n      add\n        /* \"#utility.yul\":2363:2410   */\n      mstore\n        /* \"#utility.yul\":2427:2505   */\n      tag_114\n        /* \"#utility.yul\":2500:2504   */\n      dup2\n        /* \"#utility.yul\":2491:2497   */\n      dup5\n        /* \"#utility.yul\":2427:2505   */\n      tag_56\n      jump\t// in\n    tag_114:\n        /* \"#utility.yul\":2419:2505   */\n      swap1\n      pop\n        /* \"#utility.yul\":2199:2512   */\n      swap3\n      swap2\n      pop\n      pop\n      jump\t// out\n        /* \"#utility.yul\":2518:2635   */\n    tag_57:\n        /* \"#utility.yul\":2627:2628   */\n      0x00\n        /* \"#utility.yul\":2624:2625   */\n      dup1\n        /* \"#utility.yul\":2617:2629   */\n      revert\n        /* \"#utility.yul\":2641:2758   */\n    tag_58:\n        /* \"#utility.yul\":2750:2751   */\n      0x00\n        /* \"#utility.yul\":2747:2748   */\n      dup1\n        /* \"#utility.yul\":2740:2752   */\n      revert\n        /* \"#utility.yul\":2764:2881   */\n    tag_59:\n        /* \"#utility.yul\":2873:2874   */\n      0x00\n        /* \"#utility.yul\":2870:2871   */\n      dup1\n        /* \"#utility.yul\":2863:2875   */\n      revert\n        /* \"#utility.yul\":2901:3454   */\n    tag_60:\n        /* \"#utility.yul\":2959:2967   */\n      0x00\n        /* \"#utility.yul\":2969:2975   */\n      dup1\n        /* \"#utility.yul\":3019:3022   */\n      dup4\n        /* \"#utility.yul\":3012:3016   */\n      0x1f\n        /* \"#utility.yul\":3004:3010   */\n      dup5\n        /* \"#utility.yul\":3000:3017   */\n      add\n        /* \"#utility.yul\":2996:3023   */\n      slt\n        /* \"#utility.yul\":2986:3108   */\n      tag_119\n      jumpi\n        /* \"#utility.yul\":3027:3106   */\n      tag_120\n      tag_57\n      jump\t// in\n    tag_120:\n        /* \"#utility.yul\":2986:3108   */\n    tag_119:\n        /* \"#utility.yul\":3140:3146   */\n      dup3\n        /* \"#utility.yul\":3127:3147   */\n      calldataload\n        /* \"#utility.yul\":3117:3147   */\n      swap1\n      pop\n        /* \"#utility.yul\":3170:3188   */\n      0xffffffffffffffff\n        /* \"#utility.yul\":3162:3168   */\n      dup2\n        /* \"#utility.yul\":3159:3189   */\n      gt\n        /* \"#utility.yul\":3156:3273   */\n      iszero\n      tag_121\n      jumpi\n        /* \"#utility.yul\":3192:3271   */\n      tag_122\n      tag_58\n      jump\t// in\n    tag_122:\n        /* \"#utility.yul\":3156:3273   */\n    tag_121:\n        /* \"#utility.yul\":3306:3310   */\n      0x20\n        /* \"#utility.yul\":3298:3304   */\n      dup4\n        /* \"#utility.yul\":3294:3311   */\n      add\n        /* \"#utility.yul\":3282:3311   */\n      swap2\n      pop\n        /* \"#utility.yul\":3360:3363   */\n      dup4\n        /* \"#utility.yul\":3352:3356   */\n      0x01\n        /* \"#utility.yul\":3344:3350   */\n      dup3\n        /* \"#utility.yul\":3340:3357   */\n      mul\n        /* \"#utility.yul\":3330:3338   */\n      dup4\n        /* \"#utility.yul\":3326:3358   */\n      add\n        /* \"#utility.yul\":3323:3364   */\n      gt\n        /* \"#utility.yul\":3320:3448   */\n      iszero\n      tag_123\n      jumpi\n        /* \"#utility.yul\":3367:3446   */\n      tag_124\n      tag_59\n      jump\t// in\n    tag_124:\n        /* \"#utility.yul\":3320:3448   */\n    tag_123:\n        /* \"#utility.yul\":2901:3454   */\n      swap3\n      pop\n      swap3\n      swap1\n      pop\n      jump\t// out\n        /* \"#utility.yul\":3460:3989   */\n    tag_15:\n        /* \"#utility.yul\":3531:3537   */\n      0x00\n        /* \"#utility.yul\":3539:3545   */\n      dup1\n        /* \"#utility.yul\":3588:3590   */\n      0x20\n        /* \"#utility.yul\":3576:3585   */\n      dup4\n        /* \"#utility.yul\":3567:3574   */\n      dup6\n        /* \"#utility.yul\":3563:3586   */\n      sub\n        /* \"#utility.yul\":3559:3591   */\n      slt\n        /* \"#utility.yul\":3556:3675   */\n      iszero\n      tag_126\n      jumpi\n        /* \"#utility.yul\":3594:3673   */\n      tag_127\n      tag_46\n      jump\t// in\n    tag_127:\n        /* \"#utility.yul\":3556:3675   */\n    tag_126:\n        /* \"#utility.yul\":3742:3743   */\n      0x00\n        /* \"#utility.yul\":3731:3740   */\n      dup4\n        /* \"#utility.yul\":3727:3744   */\n      add\n        /* \"#utility.yul\":3714:3745   */\n      calldataload\n        /* \"#utility.yul\":3772:3790   */\n      0xffffffffffffffff\n        /* \"#utility.yul\":3764:3770   */\n      dup2\n        /* \"#utility.yul\":3761:3791   */\n      gt\n        /* \"#utility.yul\":3758:3875   */\n      iszero\n      tag_128\n      jumpi\n        /* \"#utility.yul\":3794:3873   */\n      tag_129\n      tag_47\n      jump\t// in\n    tag_129:\n        /* \"#utility.yul\":3758:3875   */\n    tag_128:\n        /* \"#utility.yul\":3907:3972   */\n      tag_130\n        /* \"#utility.yul\":3964:3971   */\n      dup6\n        /* \"#utility.yul\":3955:3961   */\n      dup3\n        /* \"#utility.yul\":3944:3953   */\n      dup7\n        /* \"#utility.yul\":3940:3962   */\n      add\n        /* \"#utility.yul\":3907:3972   */\n      tag_60\n      jump\t// in\n    tag_130:\n        /* \"#utility.yul\":3889:3972   */\n      swap3\n      pop\n      swap3\n      pop\n        /* \"#utility.yul\":3685:3982   */\n      pop\n        /* \"#utility.yul\":3460:3989   */\n      swap3\n      pop\n      swap3\n      swap1\n      pop\n      jump\t// out\n        /* \"#utility.yul\":3995:4113   */\n    tag_61:\n        /* \"#utility.yul\":4082:4106   */\n      tag_132\n        /* \"#utility.yul\":4100:4105   */\n      dup2\n        /* \"#utility.yul\":4082:4106   */\n      tag_49\n      jump\t// in\n    tag_132:\n        /* \"#utility.yul\":4077:4080   */\n      dup3\n        /* \"#utility.yul\":4070:4107   */\n      mstore\n        /* \"#utility.yul\":3995:4113   */\n      pop\n      pop\n      jump\t// out\n        /* \"#utility.yul\":4119:4341   */\n    tag_23:\n        /* \"#utility.yul\":4212:4216   */\n      0x00\n        /* \"#utility.yul\":4250:4252   */\n      0x20\n        /* \"#utility.yul\":4239:4248   */\n      dup3\n        /* \"#utility.yul\":4235:4253   */\n      add\n        /* \"#utility.yul\":4227:4253   */\n      swap1\n      pop\n        /* \"#utility.yul\":4263:4334   */\n      tag_134\n        /* \"#utility.yul\":4331:4332   */\n      0x00\n        /* \"#utility.yul\":4320:4329   */\n      dup4\n        /* \"#utility.yul\":4316:4333   */\n      add\n        /* \"#utility.yul\":4307:4313   */\n      dup5\n        /* \"#utility.yul\":4263:4334   */\n      tag_61\n      jump\t// in\n    tag_134:\n        /* \"#utility.yul\":4119:4341   */\n      swap3\n      swap2\n      pop\n      pop\n      jump\t// out\n        /* \"#utility.yul\":4347:4527   */\n    tag_62:\n        /* \"#utility.yul\":4395:4472   */\n      0x4e487b7100000000000000000000000000000000000000000000000000000000\n        /* \"#utility.yul\":4392:4393   */\n      0x00\n        /* \"#utility.yul\":4385:4473   */\n      mstore\n        /* \"#utility.yul\":4492:4496   */\n      0x22\n        /* \"#utility.yul\":4489:4490   */\n      0x04\n        /* \"#utility.yul\":4482:4497   */\n      mstore\n        /* \"#utility.yul\":4516:4520   */\n      0x24\n        /* \"#utility.yul\":4513:4514   */\n      0x00\n        /* \"#utility.yul\":4506:4521   */\n      revert\n        /* \"#utility.yul\":4533:4853   */\n    tag_26:\n        /* \"#utility.yul\":4577:4583   */\n      0x00\n        /* \"#utility.yul\":4614:4615   */\n      0x02\n        /* \"#utility.yul\":4608:4612   */\n      dup3\n        /* \"#utility.yul\":4604:4616   */\n      div\n        /* \"#utility.yul\":4594:4616   */\n      swap1\n      pop\n        /* \"#utility.yul\":4661:4662   */\n      0x01\n        /* \"#utility.yul\":4655:4659   */\n      dup3\n        /* \"#utility.yul\":4651:4663   */\n      and\n        /* \"#utility.yul\":4682:4700   */\n      dup1\n        /* \"#utility.yul\":4672:4753   */\n      tag_137\n      jumpi\n        /* \"#utility.yul\":4738:4742   */\n      0x7f\n        /* \"#utility.yul\":4730:4736   */\n      dup3\n        /* \"#utility.yul\":4726:4743   */\n      and\n        /* \"#utility.yul\":4716:4743   */\n      swap2\n      pop\n        /* \"#utility.yul\":4672:4753   */\n    tag_137:\n        /* \"#utility.yul\":4800:4802   */\n      0x20\n        /* \"#utility.yul\":4792:4798   */\n      dup3\n        /* \"#utility.yul\":4789:4803   */\n      lt\n        /* \"#utility.yul\":4769:4787   */\n      dup2\n        /* \"#utility.yul\":4766:4804   */\n      sub\n        /* \"#utility.yul\":4763:4847   */\n      tag_138\n      jumpi\n        /* \"#utility.yul\":4819:4837   */\n      tag_139\n      tag_62\n      jump\t// in\n    tag_139:\n        /* \"#utility.yul\":4763:4847   */\n    tag_138:\n        /* \"#utility.yul\":4584:4853   */\n      pop\n        /* \"#utility.yul\":4533:4853   */\n      swap2\n      swap1\n      pop\n      jump\t// out\n        /* \"#utility.yul\":4859:5037   */\n    tag_63:\n        /* \"#utility.yul\":4999:5029   */\n      0x4f70707320737469636b20746f20796f7572206f776e206d7367212100000000\n        /* \"#utility.yul\":4995:4996   */\n      0x00\n        /* \"#utility.yul\":4987:4993   */\n      dup3\n        /* \"#utility.yul\":4983:4997   */\n      add\n        /* \"#utility.yul\":4976:5030   */\n      mstore\n        /* \"#utility.yul\":4859:5037   */\n      pop\n      jump\t// out\n        /* \"#utility.yul\":5043:5409   */\n    tag_64:\n        /* \"#utility.yul\":5185:5188   */\n      0x00\n        /* \"#utility.yul\":5206:5273   */\n      tag_142\n        /* \"#utility.yul\":5270:5272   */\n      0x1c\n        /* \"#utility.yul\":5265:5268   */\n      dup4\n        /* \"#utility.yul\":5206:5273   */\n      tag_53\n      jump\t// in\n    tag_142:\n        /* \"#utility.yul\":5199:5273   */\n      swap2\n      pop\n        /* \"#utility.yul\":5282:5375   */\n      tag_143\n        /* \"#utility.yul\":5371:5374   */\n      dup3\n        /* \"#utility.yul\":5282:5375   */\n      tag_63\n      jump\t// in\n    tag_143:\n        /* \"#utility.yul\":5400:5402   */\n      0x20\n        /* \"#utility.yul\":5395:5398   */\n      dup3\n        /* \"#utility.yul\":5391:5403   */\n      add\n        /* \"#utility.yul\":5384:5403   */\n      swap1\n      pop\n        /* \"#utility.yul\":5043:5409   */\n      swap2\n      swap1\n      pop\n      jump\t// out\n        /* \"#utility.yul\":5415:5834   */\n    tag_35:\n        /* \"#utility.yul\":5581:5585   */\n      0x00\n        /* \"#utility.yul\":5619:5621   */\n      0x20\n        /* \"#utility.yul\":5608:5617   */\n      dup3\n        /* \"#utility.yul\":5604:5622   */\n      add\n        /* \"#utility.yul\":5596:5622   */\n      swap1\n      pop\n        /* \"#utility.yul\":5668:5677   */\n      dup2\n        /* \"#utility.yul\":5662:5666   */\n      dup2\n        /* \"#utility.yul\":5658:5678   */\n      sub\n        /* \"#utility.yul\":5654:5655   */\n      0x00\n        /* \"#utility.yul\":5643:5652   */\n      dup4\n        /* \"#utility.yul\":5639:5656   */\n      add\n        /* \"#utility.yul\":5632:5679   */\n      mstore\n        /* \"#utility.yul\":5696:5827   */\n      tag_145\n        /* \"#utility.yul\":5822:5826   */\n      dup2\n        /* \"#utility.yul\":5696:5827   */\n      tag_64\n      jump\t// in\n    tag_145:\n        /* \"#utility.yul\":5688:5827   */\n      swap1\n      pop\n        /* \"#utility.yul\":5415:5834   */\n      swap2\n      swap1\n      pop\n      jump\t// out\n        /* \"#utility.yul\":5840:5937   */\n    tag_65:\n        /* \"#utility.yul\":5899:5905   */\n      0x00\n        /* \"#utility.yul\":5927:5930   */\n      dup3\n        /* \"#utility.yul\":5917:5930   */\n      swap1\n      pop\n        /* \"#utility.yul\":5840:5937   */\n      swap3\n      swap2\n      pop\n      pop\n      jump\t// out\n        /* \"#utility.yul\":5943:6123   */\n    tag_66:\n        /* \"#utility.yul\":5991:6068   */\n      0x4e487b7100000000000000000000000000000000000000000000000000000000\n        /* \"#utility.yul\":5988:5989   */\n      0x00\n        /* \"#utility.yul\":5981:6069   */\n      mstore\n        /* \"#utility.yul\":6088:6092   */\n      0x41\n        /* \"#utility.yul\":6085:6086   */\n      0x04\n        /* \"#utility.yul\":6078:6093   */\n      mstore\n        /* \"#utility.yul\":6112:6116   */\n      0x24\n        /* \"#utility.yul\":6109:6110   */\n      0x00\n        /* \"#utility.yul\":6102:6117   */\n      revert\n        /* \"#utility.yul\":6129:6270   */\n    tag_67:\n        /* \"#utility.yul\":6178:6182   */\n      0x00\n        /* \"#utility.yul\":6201:6204   */\n      dup2\n        /* \"#utility.yul\":6193:6204   */\n      swap1\n      pop\n        /* \"#utility.yul\":6224:6227   */\n      dup2\n        /* \"#utility.yul\":6221:6222   */\n      0x00\n        /* \"#utility.yul\":6214:6228   */\n      mstore\n        /* \"#utility.yul\":6258:6262   */\n      0x20\n        /* \"#utility.yul\":6255:6256   */\n      0x00\n        /* \"#utility.yul\":6245:6263   */\n      keccak256\n        /* \"#utility.yul\":6237:6263   */\n      swap1\n      pop\n        /* \"#utility.yul\":6129:6270   */\n      swap2\n      swap1\n      pop\n      jump\t// out\n        /* \"#utility.yul\":6276:6369   */\n    tag_68:\n        /* \"#utility.yul\":6313:6319   */\n      0x00\n        /* \"#utility.yul\":6360:6362   */\n      0x20\n        /* \"#utility.yul\":6355:6357   */\n      0x1f\n        /* \"#utility.yul\":6348:6353   */\n      dup4\n        /* \"#utility.yul\":6344:6358   */\n      add\n        /* \"#utility.yul\":6340:6363   */\n      div\n        /* \"#utility.yul\":6330:6363   */\n      swap1\n      pop\n        /* \"#utility.yul\":6276:6369   */\n      swap2\n      swap1\n      pop\n      jump\t// out\n        /* \"#utility.yul\":6375:6482   */\n    tag_69:\n        /* \"#utility.yul\":6419:6427   */\n      0x00\n        /* \"#utility.yul\":6469:6474   */\n      dup3\n        /* \"#utility.yul\":6463:6467   */\n      dup3\n        /* \"#utility.yul\":6459:6475   */\n      shl\n        /* \"#utility.yul\":6438:6475   */\n      swap1\n      pop\n        /* \"#utility.yul\":6375:6482   */\n      swap3\n      swap2\n      pop\n      pop\n      jump\t// out\n        /* \"#utility.yul\":6488:6881   */\n    tag_70:\n        /* \"#utility.yul\":6557:6563   */\n      0x00\n        /* \"#utility.yul\":6607:6608   */\n      0x08\n        /* \"#utility.yul\":6595:6605   */\n      dup4\n        /* \"#utility.yul\":6591:6609   */\n      mul\n        /* \"#utility.yul\":6630:6727   */\n      tag_152\n        /* \"#utility.yul\":6660:6726   */\n      0xffffffffffffffffffffffffffffffffffffffffffffffffffffffffffffffff\n        /* \"#utility.yul\":6649:6658   */\n      dup3\n        /* \"#utility.yul\":6630:6727   */\n      tag_69\n      jump\t// in\n    tag_152:\n        /* \"#utility.yul\":6748:6787   */\n      tag_153\n        /* \"#utility.yul\":6778:6786   */\n      dup7\n        /* \"#utility.yul\":6767:6776   */\n      dup4\n        /* \"#utility.yul\":6748:6787   */\n      tag_69\n      jump\t// in\n    tag_153:\n        /* \"#utility.yul\":6736:6787   */\n      swap6\n      pop\n        /* \"#utility.yul\":6820:6824   */\n      dup1\n        /* \"#utility.yul\":6816:6825   */\n      not\n        /* \"#utility.yul\":6809:6814   */\n      dup5\n        /* \"#utility.yul\":6805:6826   */\n      and\n        /* \"#utility.yul\":6796:6826   */\n      swap4\n      pop\n        /* \"#utility.yul\":6869:6873   */\n      dup1\n        /* \"#utility.yul\":6859:6867   */\n      dup7\n        /* \"#utility.yul\":6855:6874   */\n      and\n        /* \"#utility.yul\":6848:6853   */\n      dup5\n        /* \"#utility.yul\":6845:6875   */\n      or\n        /* \"#utility.yul\":6835:6875   */\n      swap3\n      pop\n        /* \"#utility.yul\":6564:6881   */\n      pop\n      pop\n        /* \"#utility.yul\":6488:6881   */\n      swap4\n      swap3\n      pop\n      pop\n      pop\n      jump\t// out\n        /* \"#utility.yul\":6887:6964   */\n    tag_71:\n        /* \"#utility.yul\":6924:6931   */\n      0x00\n        /* \"#utility.yul\":6953:6958   */\n      dup2\n        /* \"#utility.yul\":6942:6958   */\n      swap1\n      pop\n        /* \"#utility.yul\":6887:6964   */\n      swap2\n      swap1\n      pop\n      jump\t// out\n        /* \"#utility.yul\":6970:7030   */\n    tag_72:\n        /* \"#utility.yul\":6998:7001   */\n      0x00\n        /* \"#utility.yul\":7019:7024   */\n      dup2\n        /* \"#utility.yul\":7012:7024   */\n      swap1\n      pop\n        /* \"#utility.yul\":6970:7030   */\n      swap2\n      swap1\n      pop\n      jump\t// out\n        /* \"#utility.yul\":7036:7178   */\n    tag_73:\n        /* \"#utility.yul\":7086:7095   */\n      0x00\n        /* \"#utility.yul\":7119:7172   */\n      tag_157\n        /* \"#utility.yul\":7137:7171   */\n      tag_158\n        /* \"#utility.yul\":7146:7170   */\n      tag_159\n        /* \"#utility.yul\":7164:7169   */\n      dup5\n        /* \"#utility.yul\":7146:7170   */\n      tag_71\n      jump\t// in\n    tag_159:\n        /* \"#utility.yul\":7137:7171   */\n      tag_72\n      jump\t// in\n    tag_158:\n        /* \"#utility.yul\":7119:7172   */\n      tag_71\n      jump\t// in\n    tag_157:\n        /* \"#utility.yul\":7106:7172   */\n      swap1\n      pop\n        /* \"#utility.yul\":7036:7178   */\n      swap2\n      swap1\n      pop\n      jump\t// out\n        /* \"#utility.yul\":7184:7259   */\n    tag_74:\n        /* \"#utility.yul\":7227:7230   */\n      0x00\n        /* \"#utility.yul\":7248:7253   */\n      dup2\n        /* \"#utility.yul\":7241:7253   */\n      swap1\n      pop\n        /* \"#utility.yul\":7184:7259   */\n      swap2\n      swap1\n      pop\n      jump\t// out\n        /* \"#utility.yul\":7265:7534   */\n    tag_75:\n        /* \"#utility.yul\":7375:7414   */\n      tag_162\n        /* \"#utility.yul\":7406:7413   */\n      dup4\n        /* \"#utility.yul\":7375:7414   */\n      tag_73\n      jump\t// in\n    tag_162:\n        /* \"#utility.yul\":7436:7527   */\n      tag_163\n        /* \"#utility.yul\":7485:7526   */\n      tag_164\n        /* \"#utility.yul\":7509:7525   */\n      dup3\n        /* \"#utility.yul\":7485:7526   */\n      tag_74\n      jump\t// in\n    tag_164:\n        /* \"#utility.yul\":7477:7483   */\n      dup5\n        /* \"#utility.yul\":7470:7474   */\n      dup5\n        /* \"#utility.yul\":7464:7475   */\n      sload\n        /* \"#utility.yul\":7436:7527   */\n      tag_70\n      jump\t// in\n    tag_163:\n        /* \"#utility.yul\":7430:7434   */\n      dup3\n        /* \"#utility.yul\":7423:7528   */\n      sstore\n        /* \"#utility.yul\":7341:7534   */\n      pop\n        /* \"#utility.yul\":7265:7534   */\n      pop\n      pop\n      pop\n      jump\t// out\n        /* \"#utility.yul\":7540:7613   */\n    tag_76:\n        /* \"#utility.yul\":7585:7588   */\n      0x00\n        /* \"#utility.yul\":7540:7613   */\n      swap1\n      jump\t// out\n        /* \"#utility.yul\":7619:7808   */\n    tag_77:\n        /* \"#utility.yul\":7696:7728   */\n      tag_167\n      tag_76\n      jump\t// in\n    tag_167:\n        /* \"#utility.yul\":7737:7802   */\n      tag_168\n        /* \"#utility.yul\":7795:7801   */\n      dup2\n        /* \"#utility.yul\":7787:7793   */\n      dup5\n        /* \"#utility.yul\":7781:7785   */\n      dup5\n        /* \"#utility.yul\":7737:7802   */\n      tag_75\n      jump\t// in\n    tag_168:\n        /* \"#utility.yul\":7672:7808   */\n      pop\n        /* \"#utility.yul\":7619:7808   */\n      pop\n      pop\n      jump\t// out\n        /* \"#utility.yul\":7814:8000   */\n    tag_78:\n        /* \"#utility.yul\":7874:7994   */\n    tag_170:\n        /* \"#utility.yul\":7891:7894   */\n      dup2\n        /* \"#utility.yul\":7884:7889   */\n      dup2\n        /* \"#utility.yul\":7881:7895   */\n      lt\n        /* \"#utility.yul\":7874:7994   */\n      iszero\n      tag_172\n      jumpi\n        /* \"#utility.yul\":7945:7984   */\n      tag_173\n        /* \"#utility.yul\":7982:7983   */\n      0x00\n        /* \"#utility.yul\":7975:7980   */\n      dup3\n        /* \"#utility.yul\":7945:7984   */\n      tag_77\n      jump\t// in\n    tag_173:\n        /* \"#utility.yul\":7918:7919   */\n      0x01\n        /* \"#utility.yul\":7911:7916   */\n      dup2\n        /* \"#utility.yul\":7907:7920   */\n      add\n        /* \"#utility.yul\":7898:7920   */\n      swap1\n      pop\n        /* \"#utility.yul\":7874:7994   */\n      jump(tag_170)\n    tag_172:\n        /* \"#utility.yul\":7814:8000   */\n      pop\n      pop\n      jump\t// out\n        /* \"#utility.yul\":8006:8549   */\n    tag_79:\n        /* \"#utility.yul\":8107:8109   */\n      0x1f\n        /* \"#utility.yul\":8102:8105   */\n      dup3\n        /* \"#utility.yul\":8099:8110   */\n      gt\n        /* \"#utility.yul\":8096:8542   */\n      iszero\n      tag_175\n      jumpi\n        /* \"#utility.yul\":8141:8179   */\n      tag_176\n        /* \"#utility.yul\":8173:8178   */\n      dup2\n        /* \"#utility.yul\":8141:8179   */\n      tag_67\n      jump\t// in\n    tag_176:\n        /* \"#utility.yul\":8225:8254   */\n      tag_177\n        /* \"#utility.yul\":8243:8253   */\n      dup5\n        /* \"#utility.yul\":8225:8254   */\n      tag_68\n      jump\t// in\n    tag_177:\n        /* \"#utility.yul\":8215:8223   */\n      dup2\n        /* \"#utility.yul\":8211:8255   */\n      add\n        /* \"#utility.yul\":8408:8410   */\n      0x20\n        /* \"#utility.yul\":8396:8406   */\n      dup6\n        /* \"#utility.yul\":8393:8411   */\n      lt\n        /* \"#utility.yul\":8390:8439   */\n      iszero\n      tag_178\n      jumpi\n        /* \"#utility.yul\":8429:8437   */\n      dup2\n        /* \"#utility.yul\":8414:8437   */\n      swap1\n      pop\n        /* \"#utility.yul\":8390:8439   */\n    tag_178:\n        /* \"#utility.yul\":8452:8532   */\n      tag_179\n        /* \"#utility.yul\":8508:8530   */\n      tag_180\n        /* \"#utility.yul\":8526:8529   */\n      dup6\n        /* \"#utility.yul\":8508:8530   */\n      tag_68\n      jump\t// in\n    tag_180:\n        /* \"#utility.yul\":8498:8506   */\n      dup4\n        /* \"#utility.yul\":8494:8531   */\n      add\n        /* \"#utility.yul\":8481:8492   */\n      dup3\n        /* \"#utility.yul\":8452:8532   */\n      tag_78\n      jump\t// in\n    tag_179:\n        /* \"#utility.yul\":8111:8542   */\n      pop\n      pop\n        /* \"#utility.yul\":8096:8542   */\n    tag_175:\n        /* \"#utility.yul\":8006:8549   */\n      pop\n      pop\n      pop\n      jump\t// out\n        /* \"#utility.yul\":8555:8672   */\n    tag_80:\n        /* \"#utility.yul\":8609:8617   */\n      0x00\n        /* \"#utility.yul\":8659:8664   */\n      dup3\n        /* \"#utility.yul\":8653:8657   */\n      dup3\n        /* \"#utility.yul\":8649:8665   */\n      shr\n        /* \"#utility.yul\":8628:8665   */\n      swap1\n      pop\n        /* \"#utility.yul\":8555:8672   */\n      swap3\n      swap2\n      pop\n      pop\n      jump\t// out\n        /* \"#utility.yul\":8678:8847   */\n    tag_81:\n        /* \"#utility.yul\":8722:8728   */\n      0x00\n        /* \"#utility.yul\":8755:8806   */\n      tag_183\n        /* \"#utility.yul\":8803:8804   */\n      0x00\n        /* \"#utility.yul\":8799:8805   */\n      not\n        /* \"#utility.yul\":8791:8796   */\n      dup5\n        /* \"#utility.yul\":8788:8789   */\n      0x08\n        /* \"#utility.yul\":8784:8797   */\n      mul\n        /* \"#utility.yul\":8755:8806   */\n      tag_80\n      jump\t// in\n    tag_183:\n        /* \"#utility.yul\":8751:8807   */\n      not\n        /* \"#utility.yul\":8836:8840   */\n      dup1\n        /* \"#utility.yul\":8830:8834   */\n      dup4\n        /* \"#utility.yul\":8826:8841   */\n      and\n        /* \"#utility.yul\":8816:8841   */\n      swap2\n      pop\n        /* \"#utility.yul\":8729:8847   */\n      pop\n        /* \"#utility.yul\":8678:8847   */\n      swap3\n      swap2\n      pop\n      pop\n      jump\t// out\n        /* \"#utility.yul\":8852:9147   */\n    tag_82:\n        /* \"#utility.yul\":8928:8932   */\n      0x00\n        /* \"#utility.yul\":9074:9103   */\n      tag_185\n        /* \"#utility.yul\":9099:9102   */\n      dup4\n        /* \"#utility.yul\":9093:9097   */\n      dup4\n        /* \"#utility.yul\":9074:9103   */\n      tag_81\n      jump\t// in\n    tag_185:\n        /* \"#utility.yul\":9066:9103   */\n      swap2\n      pop\n        /* \"#utility.yul\":9136:9139   */\n      dup3\n        /* \"#utility.yul\":9133:9134   */\n      0x02\n        /* \"#utility.yul\":9129:9140   */\n      mul\n        /* \"#utility.yul\":9123:9127   */\n      dup3\n        /* \"#utility.yul\":9120:9141   */\n      or\n        /* \"#utility.yul\":9112:9141   */\n      swap1\n      pop\n        /* \"#utility.yul\":8852:9147   */\n      swap3\n      swap2\n      pop\n      pop\n      jump\t// out\n        /* \"#utility.yul\":9152:10555   */\n    tag_38:\n        /* \"#utility.yul\":9276:9320   */\n      tag_187\n        /* \"#utility.yul\":9316:9319   */\n      dup4\n        /* \"#utility.yul\":9311:9314   */\n      dup4\n        /* \"#utility.yul\":9276:9320   */\n      tag_65\n      jump\t// in\n    tag_187:\n        /* \"#utility.yul\":9385:9403   */\n      0xffffffffffffffff\n        /* \"#utility.yul\":9377:9383   */\n      dup2\n        /* \"#utility.yul\":9374:9404   */\n      gt\n        /* \"#utility.yul\":9371:9427   */\n      iszero\n      tag_188\n      jumpi\n        /* \"#utility.yul\":9407:9425   */\n      tag_189\n      tag_66\n      jump\t// in\n    tag_189:\n        /* \"#utility.yul\":9371:9427   */\n    tag_188:\n        /* \"#utility.yul\":9451:9489   */\n      tag_190\n        /* \"#utility.yul\":9483:9487   */\n      dup3\n        /* \"#utility.yul\":9477:9488   */\n      sload\n        /* \"#utility.yul\":9451:9489   */\n      tag_26\n      jump\t// in\n    tag_190:\n        /* \"#utility.yul\":9536:9603   */\n      tag_191\n        /* \"#utility.yul\":9596:9602   */\n      dup3\n        /* \"#utility.yul\":9588:9594   */\n      dup3\n        /* \"#utility.yul\":9582:9586   */\n      dup6\n        /* \"#utility.yul\":9536:9603   */\n      tag_79\n      jump\t// in\n    tag_191:\n        /* \"#utility.yul\":9630:9631   */\n      0x00\n        /* \"#utility.yul\":9659:9661   */\n      0x1f\n        /* \"#utility.yul\":9651:9657   */\n      dup4\n        /* \"#utility.yul\":9648:9662   */\n      gt\n        /* \"#utility.yul\":9676:9677   */\n      0x01\n        /* \"#utility.yul\":9671:10303   */\n      dup2\n      eq\n      tag_193\n      jumpi\n        /* \"#utility.yul\":10347:10348   */\n      0x00\n        /* \"#utility.yul\":10364:10370   */\n      dup5\n        /* \"#utility.yul\":10361:10445   */\n      iszero\n      tag_194\n      jumpi\n        /* \"#utility.yul\":10420:10429   */\n      dup3\n        /* \"#utility.yul\":10415:10418   */\n      dup8\n        /* \"#utility.yul\":10411:10430   */\n      add\n        /* \"#utility.yul\":10398:10431   */\n      calldataload\n        /* \"#utility.yul\":10389:10431   */\n      swap1\n      pop\n        /* \"#utility.yul\":10361:10445   */\n    tag_194:\n        /* \"#utility.yul\":10471:10538   */\n      tag_195\n        /* \"#utility.yul\":10531:10537   */\n      dup6\n        /* \"#utility.yul\":10524:10529   */\n      dup3\n        /* \"#utility.yul\":10471:10538   */\n      tag_82\n      jump\t// in\n    tag_195:\n        /* \"#utility.yul\":10465:10469   */\n      dup7\n        /* \"#utility.yul\":10458:10539   */\n      sstore\n        /* \"#utility.yul\":10320:10549   */\n      pop\n        /* \"#utility.yul\":9641:10549   */\n      jump(tag_192)\n        /* \"#utility.yul\":9671:10303   */\n    tag_193:\n        /* \"#utility.yul\":9723:9727   */\n      0x1f\n        /* \"#utility.yul\":9719:9728   */\n      not\n        /* \"#utility.yul\":9711:9717   */\n      dup5\n        /* \"#utility.yul\":9707:9729   */\n      and\n        /* \"#utility.yul\":9757:9794   */\n      tag_196\n        /* \"#utility.yul\":9789:9793   */\n      dup7\n        /* \"#utility.yul\":9757:9794   */\n      tag_67\n      jump\t// in\n    tag_196:\n        /* \"#utility.yul\":9816:9817   */\n      0x00\n        /* \"#utility.yul\":9830:10045   */\n    tag_197:\n        /* \"#utility.yul\":9844:9851   */\n      dup3\n        /* \"#utility.yul\":9841:9842   */\n      dup2\n        /* \"#utility.yul\":9838:9852   */\n      lt\n        /* \"#utility.yul\":9830:10045   */\n      iszero\n      tag_199\n      jumpi\n        /* \"#utility.yul\":9930:9939   */\n      dup5\n        /* \"#utility.yul\":9925:9928   */\n      dup10\n        /* \"#utility.yul\":9921:9940   */\n      add\n        /* \"#utility.yul\":9908:9941   */\n      calldataload\n        /* \"#utility.yul\":9900:9906   */\n      dup3\n        /* \"#utility.yul\":9893:9942   */\n      sstore\n        /* \"#utility.yul\":9981:9982   */\n      0x01\n        /* \"#utility.yul\":9973:9979   */\n      dup3\n        /* \"#utility.yul\":9969:9983   */\n      add\n        /* \"#utility.yul\":9959:9983   */\n      swap2\n      pop\n        /* \"#utility.yul\":10028:10030   */\n      0x20\n        /* \"#utility.yul\":10017:10026   */\n      dup6\n        /* \"#utility.yul\":10013:10031   */\n      add\n        /* \"#utility.yul\":10000:10031   */\n      swap5\n      pop\n        /* \"#utility.yul\":9867:9871   */\n      0x20\n        /* \"#utility.yul\":9864:9865   */\n      dup2\n        /* \"#utility.yul\":9860:9872   */\n      add\n        /* \"#utility.yul\":9855:9872   */\n      swap1\n      pop\n        /* \"#utility.yul\":9830:10045   */\n      jump(tag_197)\n    tag_199:\n        /* \"#utility.yul\":10073:10079   */\n      dup7\n        /* \"#utility.yul\":10064:10071   */\n      dup4\n        /* \"#utility.yul\":10061:10080   */\n      lt\n        /* \"#utility.yul\":10058:10244   */\n      iszero\n      tag_200\n      jumpi\n        /* \"#utility.yul\":10138:10147   */\n      dup5\n        /* \"#utility.yul\":10133:10136   */\n      dup10\n        /* \"#utility.yul\":10129:10148   */\n      add\n        /* \"#utility.yul\":10116:10149   */\n      calldataload\n        /* \"#utility.yul\":10181:10229   */\n      tag_201\n        /* \"#utility.yul\":10223:10227   */\n      0x1f\n        /* \"#utility.yul\":10215:10221   */\n      dup10\n        /* \"#utility.yul\":10211:10228   */\n      and\n        /* \"#utility.yul\":10200:10209   */\n      dup3\n        /* \"#utility.yul\":10181:10229   */\n      tag_81\n      jump\t// in\n    tag_201:\n        /* \"#utility.yul\":10173:10179   */\n      dup4\n        /* \"#utility.yul\":10166:10230   */\n      sstore\n        /* \"#utility.yul\":10081:10244   */\n      pop\n        /* \"#utility.yul\":10058:10244   */\n    tag_200:\n        /* \"#utility.yul\":10290:10291   */\n      0x01\n        /* \"#utility.yul\":10286:10287   */\n      0x02\n        /* \"#utility.yul\":10278:10284   */\n      dup9\n        /* \"#utility.yul\":10274:10288   */\n      mul\n        /* \"#utility.yul\":10270:10292   */\n      add\n        /* \"#utility.yul\":10264:10268   */\n      dup9\n        /* \"#utility.yul\":10257:10293   */\n      sstore\n        /* \"#utility.yul\":9678:10303   */\n      pop\n      pop\n      pop\n        /* \"#utility.yul\":9641:10549   */\n    tag_192:\n      pop\n        /* \"#utility.yul\":9251:10555   */\n      pop\n      pop\n      pop\n        /* \"#utility.yul\":9152:10555   */\n      pop\n      pop\n      pop\n      jump\t// out\n        /* \"#utility.yul\":10561:10707   */\n    tag_83:\n        /* \"#utility.yul\":10658:10664   */\n      dup3\n        /* \"#utility.yul\":10653:10656   */\n      dup2\n        /* \"#utility.yul\":10648:10651   */\n      dup4\n        /* \"#utility.yul\":10635:10665   */\n      calldatacopy\n        /* \"#utility.yul\":10699:10700   */\n      0x00\n        /* \"#utility.yul\":10690:10696   */\n      dup4\n        /* \"#utility.yul\":10685:10688   */\n      dup4\n        /* \"#utility.yul\":10681:10697   */\n      add\n        /* \"#utility.yul\":10674:10701   */\n      mstore\n        /* \"#utility.yul\":10561:10707   */\n      pop\n      pop\n      pop\n      jump\t// out\n        /* \"#utility.yul\":10737:11054   */\n    tag_84:\n        /* \"#utility.yul\":10835:10838   */\n      0x00\n        /* \"#utility.yul\":10856:10927   */\n      tag_204\n        /* \"#utility.yul\":10920:10926   */\n      dup4\n        /* \"#utility.yul\":10915:10918   */\n      dup6\n        /* \"#utility.yul\":10856:10927   */\n      tag_53\n      jump\t// in\n    tag_204:\n        /* \"#utility.yul\":10849:10927   */\n      swap4\n      pop\n        /* \"#utility.yul\":10937:10993   */\n      tag_205\n        /* \"#utility.yul\":10986:10992   */\n      dup4\n        /* \"#utility.yul\":10981:10984   */\n      dup6\n        /* \"#utility.yul\":10974:10979   */\n      dup5\n        /* \"#utility.yul\":10937:10993   */\n      tag_83\n      jump\t// in\n    tag_205:\n        /* \"#utility.yul\":11018:11047   */\n      tag_206\n        /* \"#utility.yul\":11040:11046   */\n      dup4\n        /* \"#utility.yul\":11018:11047   */\n      tag_55\n      jump\t// in\n    tag_206:\n        /* \"#utility.yul\":11013:11016   */\n      dup5\n        /* \"#utility.yul\":11009:11048   */\n      add\n        /* \"#utility.yul\":11002:11048   */\n      swap1\n      pop\n        /* \"#utility.yul\":10737:11054   */\n      swap4\n      swap3\n      pop\n      pop\n      pop\n      jump\t// out\n        /* \"#utility.yul\":11060:11393   */\n    tag_40:\n        /* \"#utility.yul\":11183:11187   */\n      0x00\n        /* \"#utility.yul\":11221:11223   */\n      0x20\n        /* \"#utility.yul\":11210:11219   */\n      dup3\n        /* \"#utility.yul\":11206:11224   */\n      add\n        /* \"#utility.yul\":11198:11224   */\n      swap1\n      pop\n        /* \"#utility.yul\":11270:11279   */\n      dup2\n        /* \"#utility.yul\":11264:11268   */\n      dup2\n        /* \"#utility.yul\":11260:11280   */\n      sub\n        /* \"#utility.yul\":11256:11257   */\n      0x00\n        /* \"#utility.yul\":11245:11254   */\n      dup4\n        /* \"#utility.yul\":11241:11258   */\n      add\n        /* \"#utility.yul\":11234:11281   */\n      mstore\n        /* \"#utility.yul\":11298:11386   */\n      tag_208\n        /* \"#utility.yul\":11381:11385   */\n      dup2\n        /* \"#utility.yul\":11372:11378   */\n      dup5\n        /* \"#utility.yul\":11364:11370   */\n      dup7\n        /* \"#utility.yul\":11298:11386   */\n      tag_84\n      jump\t// in\n    tag_208:\n        /* \"#utility.yul\":11290:11386   */\n      swap1\n      pop\n        /* \"#utility.yul\":11060:11393   */\n      swap4\n      swap3\n      pop\n      pop\n      pop\n      jump\t// out\n\n    auxdata: 0xa2646970667358221220e92b4e44c3b79e29df5f236c42f8b5e08f84cfc406477898cb01a4c5fc06cd5164736f6c63430008130033\n}\n",
				"bytecode": {
					"linkReferences": {},
					"object": "608060405234801561001057600080fd5b506109ad806100206000396000f3fe608060405234801561001057600080fd5b506004361061004c5760003560e01c806382a7f39c146100515780638de8f28614610081578063c665242b1461009d578063da8bfc56146100b9575b600080fd5b61006b600480360381019061006691906103d0565b6100d7565b604051610078919061048d565b60405180910390f35b61009b60048036038101906100969190610514565b6101a7565b005b6100b760048036038101906100b29190610514565b6102be565b005b6100c1610360565b6040516100ce9190610570565b60405180910390f35b60606000808373ffffffffffffffffffffffffffffffffffffffff1673ffffffffffffffffffffffffffffffffffffffff1681526020019081526020016000208054610122906105ba565b80601f016020809104026020016040519081016040528092919081815260200182805461014e906105ba565b801561019b5780601f106101705761010080835404028352916020019161019b565b820191906000526020600020905b81548152906001019060200180831161017e57829003601f168201915b50505050509050919050565b6101af610360565b73ffffffffffffffffffffffffffffffffffffffff163373ffffffffffffffffffffffffffffffffffffffff161461021c576040517f08c379a000000000000000000000000000000000000000000000000000000000815260040161021390610637565b60405180910390fd5b81816000803373ffffffffffffffffffffffffffffffffffffffff1673ffffffffffffffffffffffffffffffffffffffff1681526020019081526020016000209182610269929190610847565b503373ffffffffffffffffffffffffffffffffffffffff167fcb28b0286697a0e3bff698731b2be3d991248ff7194babd281e8dae1c4c884b683836040516102b2929190610953565b60405180910390a25050565b81816000803373ffffffffffffffffffffffffffffffffffffffff1673ffffffffffffffffffffffffffffffffffffffff168152602001908152602001600020918261030b929190610847565b503373ffffffffffffffffffffffffffffffffffffffff167fcb28b0286697a0e3bff698731b2be3d991248ff7194babd281e8dae1c4c884b68383604051610354929190610953565b60405180910390a25050565b600033905090565b600080fd5b600080fd5b600073ffffffffffffffffffffffffffffffffffffffff82169050919050565b600061039d82610372565b9050919050565b6103ad81610392565b81146103b857600080fd5b50565b6000813590506103ca816103a4565b92915050565b6000602082840312156103e6576103e5610368565b5b60006103f4848285016103bb565b91505092915050565b600081519050919050565b600082825260208201905092915050565b60005b8381101561043757808201518184015260208101905061041c565b60008484015250505050565b6000601f19601f8301169050919050565b600061045f826103fd565b6104698185610408565b9350610479818560208601610419565b61048281610443565b840191505092915050565b600060208201905081810360008301526104a78184610454565b905092915050565b600080fd5b600080fd5b600080fd5b60008083601f8401126104d4576104d36104af565b5b8235905067ffffffffffffffff8111156104f1576104f06104b4565b5b60208301915083600182028301111561050d5761050c6104b9565b5b9250929050565b6000806020838503121561052b5761052a610368565b5b600083013567ffffffffffffffff8111156105495761054861036d565b5b610555858286016104be565b92509250509250929050565b61056a81610392565b82525050565b60006020820190506105856000830184610561565b92915050565b7f4e487b7100000000000000000000000000000000000000000000000000000000600052602260045260246000fd5b600060028204905060018216806105d257607f821691505b6020821081036105e5576105e461058b565b5b50919050565b7f4f70707320737469636b20746f20796f7572206f776e206d7367212100000000600082015250565b6000610621601c83610408565b915061062c826105eb565b602082019050919050565b6000602082019050818103600083015261065081610614565b9050919050565b600082905092915050565b7f4e487b7100000000000000000000000000000000000000000000000000000000600052604160045260246000fd5b60008190508160005260206000209050919050565b60006020601f8301049050919050565b600082821b905092915050565b6000600883026106f37fffffffffffffffffffffffffffffffffffffffffffffffffffffffffffffffff826106b6565b6106fd86836106b6565b95508019841693508086168417925050509392505050565b6000819050919050565b6000819050919050565b600061074461073f61073a84610715565b61071f565b610715565b9050919050565b6000819050919050565b61075e83610729565b61077261076a8261074b565b8484546106c3565b825550505050565b600090565b61078761077a565b610792818484610755565b505050565b5b818110156107b6576107ab60008261077f565b600181019050610798565b5050565b601f8211156107fb576107cc81610691565b6107d5846106a6565b810160208510156107e4578190505b6107f86107f0856106a6565b830182610797565b50505b505050565b600082821c905092915050565b600061081e60001984600802610800565b1980831691505092915050565b6000610837838361080d565b9150826002028217905092915050565b6108518383610657565b67ffffffffffffffff81111561086a57610869610662565b5b61087482546105ba565b61087f8282856107ba565b6000601f8311600181146108ae576000841561089c578287013590505b6108a6858261082b565b86555061090e565b601f1984166108bc86610691565b60005b828110156108e4578489013582556001820191506020850194506020810190506108bf565b8683101561090157848901356108fd601f89168261080d565b8355505b6001600288020188555050505b50505050505050565b82818337600083830152505050565b60006109328385610408565b935061093f838584610917565b61094883610443565b840190509392505050565b6000602082019050818103600083015261096e818486610926565b9050939250505056fea2646970667358221220e92b4e44c3b79e29df5f236c42f8b5e08f84cfc406477898cb01a4c5fc06cd5164736f6c63430008130033",
					"opcodes": "PUSH1 0x80 PUSH1 0x40 MSTORE CALLVALUE DUP1 ISZERO PUSH2 0x10 JUMPI PUSH1 0x0 DUP1 REVERT JUMPDEST POP PUSH2 0x9AD DUP1 PUSH2 0x20 PUSH1 0x0 CODECOPY PUSH1 0x0 RETURN INVALID PUSH1 0x80 PUSH1 0x40 MSTORE CALLVALUE DUP1 ISZERO PUSH2 0x10 JUMPI PUSH1 0x0 DUP1 REVERT JUMPDEST POP PUSH1 0x4 CALLDATASIZE LT PUSH2 0x4C JUMPI PUSH1 0x0 CALLDATALOAD PUSH1 0xE0 SHR DUP1 PUSH4 0x82A7F39C EQ PUSH2 0x51 JUMPI DUP1 PUSH4 0x8DE8F286 EQ PUSH2 0x81 JUMPI DUP1 PUSH4 0xC665242B EQ PUSH2 0x9D JUMPI DUP1 PUSH4 0xDA8BFC56 EQ PUSH2 0xB9 JUMPI JUMPDEST PUSH1 0x0 DUP1 REVERT JUMPDEST PUSH2 0x6B PUSH1 0x4 DUP1 CALLDATASIZE SUB DUP2 ADD SWAP1 PUSH2 0x66 SWAP2 SWAP1 PUSH2 0x3D0 JUMP JUMPDEST PUSH2 0xD7 JUMP JUMPDEST PUSH1 0x40 MLOAD PUSH2 0x78 SWAP2 SWAP1 PUSH2 0x48D JUMP JUMPDEST PUSH1 0x40 MLOAD DUP1 SWAP2 SUB SWAP1 RETURN JUMPDEST PUSH2 0x9B PUSH1 0x4 DUP1 CALLDATASIZE SUB DUP2 ADD SWAP1 PUSH2 0x96 SWAP2 SWAP1 PUSH2 0x514 JUMP JUMPDEST PUSH2 0x1A7 JUMP JUMPDEST STOP JUMPDEST PUSH2 0xB7 PUSH1 0x4 DUP1 CALLDATASIZE SUB DUP2 ADD SWAP1 PUSH2 0xB2 SWAP2 SWAP1 PUSH2 0x514 JUMP JUMPDEST PUSH2 0x2BE JUMP JUMPDEST STOP JUMPDEST PUSH2 0xC1 PUSH2 0x360 JUMP JUMPDEST PUSH1 0x40 MLOAD PUSH2 0xCE SWAP2 SWAP1 PUSH2 0x570 JUMP JUMPDEST PUSH1 0x40 MLOAD DUP1 SWAP2 SUB SWAP1 RETURN JUMPDEST PUSH1 0x60 PUSH1 0x0 DUP1 DUP4 PUSH20 0xFFFFFFFFFFFFFFFFFFFFFFFFFFFFFFFFFFFFFFFF AND PUSH20 0xFFFFFFFFFFFFFFFFFFFFFFFFFFFFFFFFFFFFFFFF AND DUP2 MSTORE PUSH1 0x20 ADD SWAP1 DUP2 MSTORE PUSH1 0x20 ADD PUSH1 0x0 KECCAK256 DUP1 SLOAD PUSH2 0x122 SWAP1 PUSH2 0x5BA JUMP JUMPDEST DUP1 PUSH1 0x1F ADD PUSH1 0x20 DUP1 SWAP2 DIV MUL PUSH1 0x20 ADD PUSH1 0x40 MLOAD SWAP1 DUP2 ADD PUSH1 0x40 MSTORE DUP1 SWAP3 SWAP2 SWAP1 DUP2 DUP2 MSTORE PUSH1 0x20 ADD DUP3 DUP1 SLOAD PUSH2 0x14E SWAP1 PUSH2 0x5BA JUMP JUMPDEST DUP1 ISZERO PUSH2 0x19B JUMPI DUP1 PUSH1 0x1F LT PUSH2 0x170 JUMPI PUSH2 0x100 DUP1 DUP4 SLOAD DIV MUL DUP4 MSTORE SWAP2 PUSH1 0x20 ADD SWAP2 PUSH2 0x19B JUMP JUMPDEST DUP3 ADD SWAP2 SWAP1 PUSH1 0x0 MSTORE PUSH1 0x20 PUSH1 0x0 KECCAK256 SWAP1 JUMPDEST DUP2 SLOAD DUP2 MSTORE SWAP1 PUSH1 0x1 ADD SWAP1 PUSH1 0x20 ADD DUP1 DUP4 GT PUSH2 0x17E JUMPI DUP3 SWAP1 SUB PUSH1 0x1F AND DUP3 ADD SWAP2 JUMPDEST POP POP POP POP POP SWAP1 POP SWAP2 SWAP1 POP JUMP JUMPDEST PUSH2 0x1AF PUSH2 0x360 JUMP JUMPDEST PUSH20 0xFFFFFFFFFFFFFFFFFFFFFFFFFFFFFFFFFFFFFFFF AND CALLER PUSH20 0xFFFFFFFFFFFFFFFFFFFFFFFFFFFFFFFFFFFFFFFF AND EQ PUSH2 0x21C JUMPI PUSH1 0x40 MLOAD PUSH32 0x8C379A000000000000000000000000000000000000000000000000000000000 DUP2 MSTORE PUSH1 0x4 ADD PUSH2 0x213 SWAP1 PUSH2 0x637 JUMP JUMPDEST PUSH1 0x40 MLOAD DUP1 SWAP2 SUB SWAP1 REVERT JUMPDEST DUP2 DUP2 PUSH1 0x0 DUP1 CALLER PUSH20 0xFFFFFFFFFFFFFFFFFFFFFFFFFFFFFFFFFFFFFFFF AND PUSH20 0xFFFFFFFFFFFFFFFFFFFFFFFFFFFFFFFFFFFFFFFF AND DUP2 MSTORE PUSH1 0x20 ADD SWAP1 DUP2 MSTORE PUSH1 0x20 ADD PUSH1 0x0 KECCAK256 SWAP2 DUP3 PUSH2 0x269 SWAP3 SWAP2 SWAP1 PUSH2 0x847 JUMP JUMPDEST POP CALLER PUSH20 0xFFFFFFFFFFFFFFFFFFFFFFFFFFFFFFFFFFFFFFFF AND PUSH32 0xCB28B0286697A0E3BFF698731B2BE3D991248FF7194BABD281E8DAE1C4C884B6 DUP4 DUP4 PUSH1 0x40 MLOAD PUSH2 0x2B2 SWAP3 SWAP2 SWAP1 PUSH2 0x953 JUMP JUMPDEST PUSH1 0x40 MLOAD DUP1 SWAP2 SUB SWAP1 LOG2 POP POP JUMP JUMPDEST DUP2 DUP2 PUSH1 0x0 DUP1 CALLER PUSH20 0xFFFFFFFFFFFFFFFFFFFFFFFFFFFFFFFFFFFFFFFF AND PUSH20 0xFFFFFFFFFFFFFFFFFFFFFFFFFFFFFFFFFFFFFFFF AND DUP2 MSTORE PUSH1 0x20 ADD SWAP1 DUP2 MSTORE PUSH1 0x20 ADD PUSH1 0x0 KECCAK256 SWAP2 DUP3 PUSH2 0x30B SWAP3 SWAP2 SWAP1 PUSH2 0x847 JUMP JUMPDEST POP CALLER PUSH20 0xFFFFFFFFFFFFFFFFFFFFFFFFFFFFFFFFFFFFFFFF AND PUSH32 0xCB28B0286697A0E3BFF698731B2BE3D991248FF7194BABD281E8DAE1C4C884B6 DUP4 DUP4 PUSH1 0x40 MLOAD PUSH2 0x354 SWAP3 SWAP2 SWAP1 PUSH2 0x953 JUMP JUMPDEST PUSH1 0x40 MLOAD DUP1 SWAP2 SUB SWAP1 LOG2 POP POP JUMP JUMPDEST PUSH1 0x0 CALLER SWAP1 POP SWAP1 JUMP JUMPDEST PUSH1 0x0 DUP1 REVERT JUMPDEST PUSH1 0x0 DUP1 REVERT JUMPDEST PUSH1 0x0 PUSH20 0xFFFFFFFFFFFFFFFFFFFFFFFFFFFFFFFFFFFFFFFF DUP3 AND SWAP1 POP SWAP2 SWAP1 POP JUMP JUMPDEST PUSH1 0x0 PUSH2 0x39D DUP3 PUSH2 0x372 JUMP JUMPDEST SWAP1 POP SWAP2 SWAP1 POP JUMP JUMPDEST PUSH2 0x3AD DUP2 PUSH2 0x392 JUMP JUMPDEST DUP2 EQ PUSH2 0x3B8 JUMPI PUSH1 0x0 DUP1 REVERT JUMPDEST POP JUMP JUMPDEST PUSH1 0x0 DUP2 CALLDATALOAD SWAP1 POP PUSH2 0x3CA DUP2 PUSH2 0x3A4 JUMP JUMPDEST SWAP3 SWAP2 POP POP JUMP JUMPDEST PUSH1 0x0 PUSH1 0x20 DUP3 DUP5 SUB SLT ISZERO PUSH2 0x3E6 JUMPI PUSH2 0x3E5 PUSH2 0x368 JUMP JUMPDEST JUMPDEST PUSH1 0x0 PUSH2 0x3F4 DUP5 DUP3 DUP6 ADD PUSH2 0x3BB JUMP JUMPDEST SWAP2 POP POP SWAP3 SWAP2 POP POP JUMP JUMPDEST PUSH1 0x0 DUP2 MLOAD SWAP1 POP SWAP2 SWAP1 POP JUMP JUMPDEST PUSH1 0x0 DUP3 DUP3 MSTORE PUSH1 0x20 DUP3 ADD SWAP1 POP SWAP3 SWAP2 POP POP JUMP JUMPDEST PUSH1 0x0 JUMPDEST DUP4 DUP2 LT ISZERO PUSH2 0x437 JUMPI DUP1 DUP3 ADD MLOAD DUP2 DUP5 ADD MSTORE PUSH1 0x20 DUP2 ADD SWAP1 POP PUSH2 0x41C JUMP JUMPDEST PUSH1 0x0 DUP5 DUP5 ADD MSTORE POP POP POP POP JUMP JUMPDEST PUSH1 0x0 PUSH1 0x1F NOT PUSH1 0x1F DUP4 ADD AND SWAP1 POP SWAP2 SWAP1 POP JUMP JUMPDEST PUSH1 0x0 PUSH2 0x45F DUP3 PUSH2 0x3FD JUMP JUMPDEST PUSH2 0x469 DUP2 DUP6 PUSH2 0x408 JUMP JUMPDEST SWAP4 POP PUSH2 0x479 DUP2 DUP6 PUSH1 0x20 DUP7 ADD PUSH2 0x419 JUMP JUMPDEST PUSH2 0x482 DUP2 PUSH2 0x443 JUMP JUMPDEST DUP5 ADD SWAP2 POP POP SWAP3 SWAP2 POP POP JUMP JUMPDEST PUSH1 0x0 PUSH1 0x20 DUP3 ADD SWAP1 POP DUP2 DUP2 SUB PUSH1 0x0 DUP4 ADD MSTORE PUSH2 0x4A7 DUP2 DUP5 PUSH2 0x454 JUMP JUMPDEST SWAP1 POP SWAP3 SWAP2 POP POP JUMP JUMPDEST PUSH1 0x0 DUP1 REVERT JUMPDEST PUSH1 0x0 DUP1 REVERT JUMPDEST PUSH1 0x0 DUP1 REVERT JUMPDEST PUSH1 0x0 DUP1 DUP4 PUSH1 0x1F DUP5 ADD SLT PUSH2 0x4D4 JUMPI PUSH2 0x4D3 PUSH2 0x4AF JUMP JUMPDEST JUMPDEST DUP3 CALLDATALOAD SWAP1 POP PUSH8 0xFFFFFFFFFFFFFFFF DUP2 GT ISZERO PUSH2 0x4F1 JUMPI PUSH2 0x4F0 PUSH2 0x4B4 JUMP JUMPDEST JUMPDEST PUSH1 0x20 DUP4 ADD SWAP2 POP DUP4 PUSH1 0x1 DUP3 MUL DUP4 ADD GT ISZERO PUSH2 0x50D JUMPI PUSH2 0x50C PUSH2 0x4B9 JUMP JUMPDEST JUMPDEST SWAP3 POP SWAP3 SWAP1 POP JUMP JUMPDEST PUSH1 0x0 DUP1 PUSH1 0x20 DUP4 DUP6 SUB SLT ISZERO PUSH2 0x52B JUMPI PUSH2 0x52A PUSH2 0x368 JUMP JUMPDEST JUMPDEST PUSH1 0x0 DUP4 ADD CALLDATALOAD PUSH8 0xFFFFFFFFFFFFFFFF DUP2 GT ISZERO PUSH2 0x549 JUMPI PUSH2 0x548 PUSH2 0x36D JUMP JUMPDEST JUMPDEST PUSH2 0x555 DUP6 DUP3 DUP7 ADD PUSH2 0x4BE JUMP JUMPDEST SWAP3 POP SWAP3 POP POP SWAP3 POP SWAP3 SWAP1 POP JUMP JUMPDEST PUSH2 0x56A DUP2 PUSH2 0x392 JUMP JUMPDEST DUP3 MSTORE POP POP JUMP JUMPDEST PUSH1 0x0 PUSH1 0x20 DUP3 ADD SWAP1 POP PUSH2 0x585 PUSH1 0x0 DUP4 ADD DUP5 PUSH2 0x561 JUMP JUMPDEST SWAP3 SWAP2 POP POP JUMP JUMPDEST PUSH32 0x4E487B7100000000000000000000000000000000000000000000000000000000 PUSH1 0x0 MSTORE PUSH1 0x22 PUSH1 0x4 MSTORE PUSH1 0x24 PUSH1 0x0 REVERT JUMPDEST PUSH1 0x0 PUSH1 0x2 DUP3 DIV SWAP1 POP PUSH1 0x1 DUP3 AND DUP1 PUSH2 0x5D2 JUMPI PUSH1 0x7F DUP3 AND SWAP2 POP JUMPDEST PUSH1 0x20 DUP3 LT DUP2 SUB PUSH2 0x5E5 JUMPI PUSH2 0x5E4 PUSH2 0x58B JUMP JUMPDEST JUMPDEST POP SWAP2 SWAP1 POP JUMP JUMPDEST PUSH32 0x4F70707320737469636B20746F20796F7572206F776E206D7367212100000000 PUSH1 0x0 DUP3 ADD MSTORE POP JUMP JUMPDEST PUSH1 0x0 PUSH2 0x621 PUSH1 0x1C DUP4 PUSH2 0x408 JUMP JUMPDEST SWAP2 POP PUSH2 0x62C DUP3 PUSH2 0x5EB JUMP JUMPDEST PUSH1 0x20 DUP3 ADD SWAP1 POP SWAP2 SWAP1 POP JUMP JUMPDEST PUSH1 0x0 PUSH1 0x20 DUP3 ADD SWAP1 POP DUP2 DUP2 SUB PUSH1 0x0 DUP4 ADD MSTORE PUSH2 0x650 DUP2 PUSH2 0x614 JUMP JUMPDEST SWAP1 POP SWAP2 SWAP1 POP JUMP JUMPDEST PUSH1 0x0 DUP3 SWAP1 POP SWAP3 SWAP2 POP POP JUMP JUMPDEST PUSH32 0x4E487B7100000000000000000000000000000000000000000000000000000000 PUSH1 0x0 MSTORE PUSH1 0x41 PUSH1 0x4 MSTORE PUSH1 0x24 PUSH1 0x0 REVERT JUMPDEST PUSH1 0x0 DUP2 SWAP1 POP DUP2 PUSH1 0x0 MSTORE PUSH1 0x20 PUSH1 0x0 KECCAK256 SWAP1 POP SWAP2 SWAP1 POP JUMP JUMPDEST PUSH1 0x0 PUSH1 0x20 PUSH1 0x1F DUP4 ADD DIV SWAP1 POP SWAP2 SWAP1 POP JUMP JUMPDEST PUSH1 0x0 DUP3 DUP3 SHL SWAP1 POP SWAP3 SWAP2 POP POP JUMP JUMPDEST PUSH1 0x0 PUSH1 0x8 DUP4 MUL PUSH2 0x6F3 PUSH32 0xFFFFFFFFFFFFFFFFFFFFFFFFFFFFFFFFFFFFFFFFFFFFFFFFFFFFFFFFFFFFFFFF DUP3 PUSH2 0x6B6 JUMP JUMPDEST PUSH2 0x6FD DUP7 DUP4 PUSH2 0x6B6 JUMP JUMPDEST SWAP6 POP DUP1 NOT DUP5 AND SWAP4 POP DUP1 DUP7 AND DUP5 OR SWAP3 POP POP POP SWAP4 SWAP3 POP POP POP JUMP JUMPDEST PUSH1 0x0 DUP2 SWAP1 POP SWAP2 SWAP1 POP JUMP JUMPDEST PUSH1 0x0 DUP2 SWAP1 POP SWAP2 SWAP1 POP JUMP JUMPDEST PUSH1 0x0 PUSH2 0x744 PUSH2 0x73F PUSH2 0x73A DUP5 PUSH2 0x715 JUMP JUMPDEST PUSH2 0x71F JUMP JUMPDEST PUSH2 0x715 JUMP JUMPDEST SWAP1 POP SWAP2 SWAP1 POP JUMP JUMPDEST PUSH1 0x0 DUP2 SWAP1 POP SWAP2 SWAP1 POP JUMP JUMPDEST PUSH2 0x75E DUP4 PUSH2 0x729 JUMP JUMPDEST PUSH2 0x772 PUSH2 0x76A DUP3 PUSH2 0x74B JUMP JUMPDEST DUP5 DUP5 SLOAD PUSH2 0x6C3 JUMP JUMPDEST DUP3 SSTORE POP POP POP POP JUMP JUMPDEST PUSH1 0x0 SWAP1 JUMP JUMPDEST PUSH2 0x787 PUSH2 0x77A JUMP JUMPDEST PUSH2 0x792 DUP2 DUP5 DUP5 PUSH2 0x755 JUMP JUMPDEST POP POP POP JUMP JUMPDEST JUMPDEST DUP2 DUP2 LT ISZERO PUSH2 0x7B6 JUMPI PUSH2 0x7AB PUSH1 0x0 DUP3 PUSH2 0x77F JUMP JUMPDEST PUSH1 0x1 DUP2 ADD SWAP1 POP PUSH2 0x798 JUMP JUMPDEST POP POP JUMP JUMPDEST PUSH1 0x1F DUP3 GT ISZERO PUSH2 0x7FB JUMPI PUSH2 0x7CC DUP2 PUSH2 0x691 JUMP JUMPDEST PUSH2 0x7D5 DUP5 PUSH2 0x6A6 JUMP JUMPDEST DUP2 ADD PUSH1 0x20 DUP6 LT ISZERO PUSH2 0x7E4 JUMPI DUP2 SWAP1 POP JUMPDEST PUSH2 0x7F8 PUSH2 0x7F0 DUP6 PUSH2 0x6A6 JUMP JUMPDEST DUP4 ADD DUP3 PUSH2 0x797 JUMP JUMPDEST POP POP JUMPDEST POP POP POP JUMP JUMPDEST PUSH1 0x0 DUP3 DUP3 SHR SWAP1 POP SWAP3 SWAP2 POP POP JUMP JUMPDEST PUSH1 0x0 PUSH2 0x81E PUSH1 0x0 NOT DUP5 PUSH1 0x8 MUL PUSH2 0x800 JUMP JUMPDEST NOT DUP1 DUP4 AND SWAP2 POP POP SWAP3 SWAP2 POP POP JUMP JUMPDEST PUSH1 0x0 PUSH2 0x837 DUP4 DUP4 PUSH2 0x80D JUMP JUMPDEST SWAP2 POP DUP3 PUSH1 0x2 MUL DUP3 OR SWAP1 POP SWAP3 SWAP2 POP POP JUMP JUMPDEST PUSH2 0x851 DUP4 DUP4 PUSH2 0x657 JUMP JUMPDEST PUSH8 0xFFFFFFFFFFFFFFFF DUP2 GT ISZERO PUSH2 0x86A JUMPI PUSH2 0x869 PUSH2 0x662 JUMP JUMPDEST JUMPDEST PUSH2 0x874 DUP3 SLOAD PUSH2 0x5BA JUMP JUMPDEST PUSH2 0x87F DUP3 DUP3 DUP6 PUSH2 0x7BA JUMP JUMPDEST PUSH1 0x0 PUSH1 0x1F DUP4 GT PUSH1 0x1 DUP2 EQ PUSH2 0x8AE JUMPI PUSH1 0x0 DUP5 ISZERO PUSH2 0x89C JUMPI DUP3 DUP8 ADD CALLDATALOAD SWAP1 POP JUMPDEST PUSH2 0x8A6 DUP6 DUP3 PUSH2 0x82B JUMP JUMPDEST DUP7 SSTORE POP PUSH2 0x90E JUMP JUMPDEST PUSH1 0x1F NOT DUP5 AND PUSH2 0x8BC DUP7 PUSH2 0x691 JUMP JUMPDEST PUSH1 0x0 JUMPDEST DUP3 DUP2 LT ISZERO PUSH2 0x8E4 JUMPI DUP5 DUP10 ADD CALLDATALOAD DUP3 SSTORE PUSH1 0x1 DUP3 ADD SWAP2 POP PUSH1 0x20 DUP6 ADD SWAP5 POP PUSH1 0x20 DUP2 ADD SWAP1 POP PUSH2 0x8BF JUMP JUMPDEST DUP7 DUP4 LT ISZERO PUSH2 0x901 JUMPI DUP5 DUP10 ADD CALLDATALOAD PUSH2 0x8FD PUSH1 0x1F DUP10 AND DUP3 PUSH2 0x80D JUMP JUMPDEST DUP4 SSTORE POP JUMPDEST PUSH1 0x1 PUSH1 0x2 DUP9 MUL ADD DUP9 SSTORE POP POP POP JUMPDEST POP POP POP POP POP POP POP JUMP JUMPDEST DUP3 DUP2 DUP4 CALLDATACOPY PUSH1 0x0 DUP4 DUP4 ADD MSTORE POP POP POP JUMP JUMPDEST PUSH1 0x0 PUSH2 0x932 DUP4 DUP6 PUSH2 0x408 JUMP JUMPDEST SWAP4 POP PUSH2 0x93F DUP4 DUP6 DUP5 PUSH2 0x917 JUMP JUMPDEST PUSH2 0x948 DUP4 PUSH2 0x443 JUMP JUMPDEST DUP5 ADD SWAP1 POP SWAP4 SWAP3 POP POP POP JUMP JUMPDEST PUSH1 0x0 PUSH1 0x20 DUP3 ADD SWAP1 POP DUP2 DUP2 SUB PUSH1 0x0 DUP4 ADD MSTORE PUSH2 0x96E DUP2 DUP5 DUP7 PUSH2 0x926 JUMP JUMPDEST SWAP1 POP SWAP4 SWAP3 POP POP POP JUMP INVALID LOG2 PUSH5 0x6970667358 0x22 SLT KECCAK256 0xE9 0x2B 0x4E PREVRANDAO 0xC3 0xB7 SWAP15 0x29 0xDF 0x5F 0x23 PUSH13 0x42F8B5E08F84CFC406477898CB ADD LOG4 0xC5 0xFC MOD 0xCD MLOAD PUSH5 0x736F6C6343 STOP ADDMOD SGT STOP CALLER "
				},
				"gasEstimates": {
					"creation": {
						"codeDepositCost": "495400",
						"executionCost": "530",
						"totalCost": "495930"
					},
					"external": {
						"getUserAddr()": "429",
						"storeMsg(string)": "infinite",
						"updateMsg(string)": "infinite",
						"viewMsg(address)": "infinite"
					}
				},
				"methodIdentifiers": {
					"getUserAddr()": "da8bfc56",
					"storeMsg(string)": "c665242b",
					"updateMsg(string)": "8de8f286",
					"viewMsg(address)": "82a7f39c"
				}
			},
			"storageLayout": {
				"storage": [
					{
						"astId": 5,
						"contract": "practice/web3/Development/QuilsChallenges/SimpleMessage.sol:SimpleMessage",
						"label": "messages",
						"offset": 0,
						"slot": "0",
						"type": "t_mapping(t_address,t_string_storage)"
					}
				],
				"types": {
					"t_address": {
						"encoding": "inplace",
						"label": "address",
						"numberOfBytes": "20"
					},
					"t_mapping(t_address,t_string_storage)": {
						"encoding": "mapping",
						"key": "t_address",
						"label": "mapping(address => string)",
						"numberOfBytes": "32",
						"value": "t_string_storage"
					},
					"t_string_storage": {
						"encoding": "bytes",
						"label": "string",
						"numberOfBytes": "32"
					}
				}
			},
			"userdoc": {
				"kind": "user",
				"methods": {},
				"version": 1
			}
		}
	}
}